:020000040800F2
:1000000028050020C5000008CD000008CF0000082A
:1000100000000000000000000000000000000000E0
:10002000000000000000000000000000D1000008F7
:100030000000000000000000D3000008C9170008FD
:10004000D700000800000000D7000008D700000813
:10005000D7000008D7000008D7000008B102000848
:1000600000000000D7000008D7000008D7000008F3
:1000700031010008C5180008F5180008000000004C
:10008000D70000080000000000000000D7000008B2
:10009000000000009D180008D7000008D7000008E5
:1000A00000000000D700000800000000D700000892
:1000B0000348854600F02AF800480047C91B00089D
:1000C000280500200448804704480047FEE7FEE773
:1000D000FEE7FEE7FEE7FEE741180008B100000872
:1000E00030B50B46014600202022012409E00D46D0
:1000F000D5409D4205D31D469540491B2546954058
:1001000040191546521E002DF1DC30BD064C01256C
:10011000064E05E0E36807CC2B430C3C98471034AF
:10012000B442F7D3FFF7C8FF601C0008801C00082A
:1001300010B50E4800F058F90D4C6188401880B297
:1001400060802178491CC9B22170052907D3FFF7C7
:10015000C7FF608001F0ACFA002020706080034887
:1001600000F045F9014800F0C5FA10BD1800002064
:100170000C00002070B5044600688168490720D54E
:10018000816810264907002905DA8168890702D4A9
:1001900081683143816000F08FFB05460DE000F07F
:1001A0008BFB401B022808D9606C30436064A06C54
:1001B00001210843A064084670BD2068806840079C
:1001C000EDD4002070BDF8B5044600688168890749
:1001D000890F012928D10168C90702D1C168090422
:1001E00022D58168052211401025012601290FD151
:1001F000816802221143816021680320086000F0B9
:100200005BFB07460CE000F057FBC01B022807D938
:10021000606C28436064A06C3043A0640120F8BD8A
:1002200020688068C007EED10020F8BDF8B504460C
:1002300000200090206881688907890F012905D175
:100240000168C9072CD1C168090429D48168154AFD
:10025000102611400125002915D1816829438160AC
:10026000124811490068FFF73BFF00E0401E009074
:100270000028FBD100F020FB07460CE000F01CFB3F
:10028000C01B022807D9606C30436064A06C28430F
:10029000A0640120F8BD20680068C043C007EDD10C
:1002A0000020F8BD1700008040420F00140000201D
:1002B00010B506484169064C890502D5446101F034
:1002C00073FA204600F03CFA10BD00000004014023
:1002D00000020000F8B5002504464034009522785D
:1002E000012A39D00122227003689E68760767D4FC
:1002F000384F4E68BE424DD09E6A0F78BA401643C2
:100300009E620123826B1B079A421FD0012A1DD0D7
:10031000022A1BD0032A19D0042A17D0052A15D087
:10032000062A13D0072A11D002688B68566976070F
:10033000760FB3420AD05369DB08DB0053610068D3
:1003400042690B7A5B075B0F1A4342610A68102A05
:1003500004D0112A02D038E00220F8BD1E4883687C
:10036000102A07D0012292051343836008681028E1
:1003700003D02AE00122D205F6E7194817490068A0
:10038000FFF7AEFE0A21484300E0401E009000281F
:10039000FBD11AE0986A0E78B240904398620968DF
:1003A000102901D0112910D10B488268102904D0DE
:1003B000012189058A43826007E00121C905F9E727
:1003C000416C202211434164012500202070284601
:1003D000F8BD0000011000000027014040420F005E
:1003E00014000020704770470068006C704770B5BB
:1003F000044600680168490702D54168490705D4E9
:100400000168090730D5416809072DD5616CC90617
:1004100004D4616C0122520211436164C1680C254D
:100420000905890F00291AD1216A002917D101680D
:10043000090714D581684A070121002A08DB4268B0
:10044000AA434260606C0A0290430843606406E07D
:10045000606C202210436064A06C0843A0642046B6
:10046000FFF7C0FF206805602068016809060DD508
:10047000406800060AD5606C0121090408436064E5
:10048000204600F0D7F821688020086020680168C5
:10049000C90613D54168C90610D5616B102501291D
:1004A00002D0C168C90707D0A16C02221143A16420
:1004B00005602046FFF797FF2068056070BD0000CB
:1004C000F8B500250446002803D0606C002802D04F
:1004D00008E00120F8BD0020A06440210855204616
:1004E00000F0AAF8606C1022C006002870DB2068BB
:1004F000816849076CD4616C130199430223194345
:10050000616481688907890F012905D10168C907DC
:100510000FD1C16809040CD4C16818239943A3689A
:100520001943C1602068016963688900890819431B
:1005300001612068C1683D4B1940C160A069E16953
:100540008003C9030843216A4B031843636B012BE3
:1005500002D001231B0300E000231843E368184383
:100560002369022B09D000231843236B666A5B00C2
:1005700018430123012E02D00AE00423F4E70029E6
:1005800027D0616C202631436164A16C1943A164BA
:10059000A16A0E46FF3EC23E02D0E66A31430843DE
:1005A0002168CE680643CE600126A16B3607B142B2
:1005B00013D0012911D002290FD003290DD004290D
:1005C0000BD0052909D0062907D0072905D010E04E
:1005D00028E0012109040843DAE721684E69F6089A
:1005E000F6004E6121684E69278F7F077F0F3E43DB
:1005F0004E612168C9680E4E3140814207D100200A
:10060000A064606C80088000401C606408E0606C3E
:100610000221884310436064A06C1843A064012544
:100620002846F8BD606C10436064F8E71902FEFFCD
:10063000E7FF3F837047000000B500680C4987B0B2
:10064000884212D10B48826941150A438261806950
:1006500008400590022000900320019000200290A5
:1006600009206946C00600F077F807B000BD000019
:10067000002401400010024070B5044621680020AB
:100680008968490732D425464035297801292DD07B
:1006900001212970E169012904D02046FFF7C6FD38
:1006A000002818D1616C124A1140FF220132114317
:1006B00061640021A164297022681C2111606369B2
:1006C0000422082B08D023685D680D435D60216813
:1006D0008B6813438B6070BD21684B6893434B60FC
:1006E00021684B6818252B434B60F0E7022070BD52
:1006F000FEF1FFFF70B50546044640352878012815
:1007000007D001262E702046FFF734FD002802D0C6
:1007100011E0022070BD206841681C2291434160B5
:100720002046FFF750FD002805D1616CFF22013201
:100730009143314361640021297070BD704700000E
:1007400010B504494A69024202D04861FFF7F6FF3A
:1007500010BD000000040140F8B500238DE0012425
:100760009C40A44622407DD04C68022C01D0122C23
:100770000CD1DC08A40027183C6A5D07ED0E0F269B
:10078000AE40B4430E69AE4026433E6205685E004B
:100790000324B4400F79A543BF07BF0FB7402F43D1
:1007A00007604D68012D05D0022D03D0112D01D019
:1007B000122D0ED18568CF68A543B7402F438760BF
:1007C00047686546AF430D79ED06ED0F9D403D430B
:1007D0004560C568A5438C68B4402C43C4604C6830
:1007E000E40049D5284CA56901263543A561A469D3
:1007F0009D0834400094254CAD002F19BC689D071E
:100800002E0F0F25B540AC430925ED06A84201D1B6
:1008100000250FE01E4DA84201D101250AE01D4D23
:10082000A84201D1022505E01B4DA84201D10325B4
:1008300000E00525B5402543BD60184C25684E688D
:100840009543F60300D51543256065684E689543CA
:10085000B60300D515436560A5684E689543F6025A
:1008600002D500E008E01543A560E5684E689543B1
:10087000B60200D51543E5605B1C0A681446DC40EF
:1008800000D06CE7F8BD00000010024000000140FD
:100890000004004800080048000C00480004014023
:1008A0000069084000D001207047002A01D0816112
:1008B000704781627047000001480068704700007F
:1008C0001000002002480168491C016070470000C8
:1008D0001000002010B50648016810221143016085
:1008E000002000F007F800F017F8002010BD00000D
:1008F0000020024010B5044600F0DCF87D21C9005C
:10090000FFF7EEFB00F0D0FA00222146501E00F067
:1009100037F8002010BD000008B513488169012296
:1009200011438161816911400091C26901040A4348
:10093000C261C0690022084000901146501F00F0BB
:100940001FF800221146901E00F01AF800221146EE
:10095000501E00F015F800221146042000F010F897
:10096000042000F003F808BD00100240C106C90EC3
:1009700001208840014908607047000000E100E064
:1009800010B500F073FE10BDF8B5054644480E469C
:100990000068C007C00FB0420AD241480168490848
:1009A0004900314301600068C007C00FB0425CD10C
:1009B00028783C4C800705D56068F0218843A968F9
:1009C000084360602878C0073FD06868012813D0CA
:1009D0002168022813D08907002946DA616889084E
:1009E000890001436160FFF767FF696807460129D5
:1009F0000DD0022917D024E021688903ECE7890192
:100A0000EAE7FFF759FFC11B2748814217D8606802
:100A10000007800F0128F4D117E0FFF74DFFC11B3D
:100A2000214881420BD860680007800F0228F4D16A
:100A30000BE0FFF741FFC11B1B48814201D9032096
:100A4000F8BD60680007800FF3D115480168C90739
:100A5000C90FB1420BD9016849084900314301600F
:100A60000068C007C00FB04201D00120F8BD28784F
:100A7000400706D56068072109028843E9680843F2
:100A8000606000F01DF86168084A0906090F515CB2
:100A9000C840074908600020FFF72CFF0020F8BD80
:100AA000002002400010024088130000501C000883
:100AB0001400002001480068704700001400002066
:100AC00010B512A30FCB88B06C460FC413A30FCB85
:100AD0000FC416494A680C20134603401448042BDF
:100AE0000FD0082B0DD193021B0F6C46E45CC96A32
:100AF00004AB0907090F595CD20304D5FFF7F0FADC
:100B0000604308B010BD0B486043FAE702030405D8
:100B1000060708090A0B0C0D0E0F10100102030442
:100B200005060708090A0B0C0D0E0F1000100240F5
:100B300000127A0000093D00FEB504460078D04D51
:100B4000C00747D068680007800F012807D0686891
:100B50000007800F022809D16868C00306D52868FD
:100B6000800337D5606800287ED033E001206268BA
:100B70000004012A11D08100002A01D0052A10D0DA
:100B80002A6882432A6028688843286060680028B1
:100B900014D0FFF791FE06460CE029680143296056
:100BA000F4E72A680A432A60F7E7FFF785FE801B0F
:100BB00064286FD828688003F7D50BE0FFF77CFE28
:100BC000064604E0FFF778FE801B6428F1D8286809
:100BD0008003F7D420780126800700283BDA686874
:100BE0000007800F07D068680007800F022809D12E
:100BF0006868C00306D42868800715D5E068012816
:100C000032D111E0E0680028286815D03043286010
:100C1000FFF752FE074604E0FFF74EFEC01B022816
:100C2000C7D828688007F7D52868F8218843216944
:100C3000C900084328600EE0400840002860FFF724
:100C40003BFE074604E0FFF737FEC01B0228B0D882
:100C500028688007F7D42078000724D5E0690028A9
:100C6000686A10D0304300E008E16862FFF724FEB4
:100C7000074604E0FFF720FEC01B022899D8686AE7
:100C80008007F7D50FE0400840006862FFF714FEC8
:100C9000074605E09DE0FFF70FFEC01B022888D83D
:100CA000686A8007F7D4207804274007002860DAB4
:100CB00000200190E869C00008D4E969B806014342
:100CC000E961E96901400120009101906D480168E6
:100CD000C90511D40168821511430160FFF7ECFDCD
:100CE000009005E0FFF7E8FD0099401A642870D8ED
:100CF00064480068C005F5D5A06801280AD000281E
:100D000001D0052810D0286A400840002862286ACF
:100D1000B84301E0286A30432862A068002812D056
:100D2000FFF7CAFD00900AE0286A38432862F1E71D
:100D3000FFF7C2FD0099411A5348814249D8286AF9
:100D40008007F5D50DE0FFF7B7FD009006E0FFF74F
:100D5000B3FD0099411A4C4881423AD8286A80076D
:100D6000F5D40198002804D0E969012000078143E7
:100D7000E9612078C00635D5606901280CD0401D96
:100D8000686B23D038436863686B40084000686331
:100D9000FFF792FD064622E0686B38436863686B94
:100DA00030436863FFF788FD064604E0FFF784FDE3
:100DB000801B02285BD8686B8007F7D5686BF82129
:100DC0008843A169C900084368630BE0B8436863BE
:100DD000F4E74CE0FFF770FD801B022847D8686BF2
:100DE0008007F7D4206A002846D069680907890F70
:100DF000022943D0012636060228286805D0B043D0
:100E00002860FFF759FD044633E0B0432860FFF740
:100E100053FD074604E0FFF74FFDC01B022826D80C
:100E200028688001F7D4E86AE16A000900010843F4
:100E3000E862616AA06A084369683D22120491432E
:100E400008436860286830432860FFF735FD044692
:100E500004E0FFF731FD001B022808D82868800154
:100E6000F7D509E0FFF728FD001B022801D9032070
:100E7000FEBD28688001F5D40020FEBD0120FEBD26
:100E80000010024000700040881300000422044952
:100E90000428086902D09043086170471043FBE7BB
:100EA00000E000E070470000094910B5401E88428C
:100EB00001D9012010BD074C60610321081F00F01B
:100EC000D5FB0020A06107202061002010BD00009C
:100ED000FFFFFF0000E000E010B5FFF7E3FF10BDEB
:100EE0007047704770B5034620331A7F012A27D018
:100EF00001241C7702225A770326CA683602B243BD
:100F00008E6800253243A602B2434E680068324321
:100F1000E602B2430E6832432603B2430E693243FF
:100F20006603B2434E6989693243A603B2430A435A
:100F3000E603B2430A4342645C771D77002070BD2C
:100F4000022070BD70B502462032137F012B1BD0EA
:100F50000123137702245477046865687026B5432B
:100F60006560046865680E68354365600468A56857
:100F70008026B543A5600068846849680C43846096
:100F800053770020107770BD022070BD70B504004B
:100F900005D025462035687F002802D006E00120D4
:100FA00070BD00202877204600F00AF802206877FC
:100FB000211D206800F0C0FC01206877002070BD72
:100FC00008B500680A49884210D10A48826901219F
:100FD00049040A438261806900220840009011465A
:100FE0001520FFF7CDFC1520FFF7C0FC08BD000061
:100FF00000440140001002400268D36801210B4305
:10100000D360006802680A4302600020704770479E
:1010100070B50446006801690025C94389070029A5
:1010200015DBC168C943890711D4E91E016101209C
:101030002077206880698007204602D0FFF7E7FF0D
:1010400004E000F0D7F8204600F096F925772068F4
:101050000169C943490717D4C168C943490713D473
:101060000421C9430161022020772068806980053E
:10107000800F204602D0FFF7CAFF04E000F0BAF864
:10108000204600F079F9257720680169C9430907EE
:1010900016D4C168C943090712D40821C9430161A4
:1010A000042020772068C0698007204602D0FFF71F
:1010B000AEFF04E000F09EF8204600F05DF92577D1
:1010C00020680169C943C90617D4C168C943C90664
:1010D00013D41021C9430161082020772068C0691A
:1010E0008005800F204602D0FFF791FF04E000F05A
:1010F00081F8204600F040F9257720680169C9434E
:10110000C90708D1C168C943C90704D1891E016153
:10111000204600F055F920680169C943090609D441
:10112000C168C943090605D48021C943016120462D
:10113000FFF7D6FE20680169C943490609D4C16892
:10114000C943490605D44021C9430161204600F046
:1011500038F920680169C943890609D4C168C943BF
:10116000890605D42021C94301612046FFF7B9FE55
:1011700070BD000000B50068094985B088420DD1F6
:101180004020009002200190002002900390012056
:10119000049009206946C006FFF7DEFA05B000BDDD
:1011A0000004004070B504462034237F012B0CD08E
:1011B0000125257702236377002A08D0042A0AD064
:1011C000082A0CD00C2A11D10DE0022070BD006855
:1011D00000F0FAFB0AE0006800F032FC06E000686C
:1011E00000F068FC02E0006800F0A0FC65770020D9
:1011F000207770BD704770B5040005D025462035B6
:10120000687F002802D006E0012070BD002028770A
:10121000204600F00BF802206877211D206800F0BE
:101220008BFB01206877002070BD000008B50068C6
:101230000549884207D105488269C1140A43826181
:1012400080690840009008BD002C01400010024059
:10125000F8B5064604462036307F0D4601280DD0ED
:1012600001203077022070770427002A08D0042A52
:1012700016D0082A2AD00C2A4DD137E00220F8BD1A
:10128000206800F0A1FB2068816908221143816178
:1012900020688169B9438161206881692A6912E007
:1012A000206800F0CDFB206882690121C9020A4351
:1012B00082612068816901229202914381612068E4
:1012C00081692A6912021143816124E0206800F0DB
:1012D000F1FB2068C26908210A43C2612068C16924
:1012E000B943C1612068C1692A6912E0206800F031
:1012F0001DFC2068C1690122D2021143C16120682E
:10130000C269012189028A43C2612068C1692A69D0
:1013100012021143C1610120707700203077F8BDBF
:1013200070B5040005D025462035687F002802D01E
:1013300006E0012070BD00202877204600F00AF862
:1013400002206877211D206800F0F6FA01206877F6
:10135000002070BD08B500680549884207D10548DE
:10136000C26902210A43C261C0690840009008BDF9
:1013700000040040001002407047000010B5044611
:101380000068012200F014FB0A482168814205D060
:101390000948814202D00948814204D1486C0122A7
:1013A000D2031043486420680168012211430160A0
:1013B000002010BD002C01400044014000480140C5
:1013C000704770473EB518481649016000214160DA
:1013D0008160C1608161C1610124016204220461F4
:1013E00042614162FF22C162C23244638262016390
:1013F000FFF766F8002803D04A210CA000F0C6FBD6
:101400000120000301900004029000946946064800
:10141000FEF760FF002803D0542104A000F0B6FBC3
:101420003EBD000000240140180000202E2E2F5346
:1014300072632F6164632E630000000070B5204862
:1014400086B04269012189050A43426142690A4026
:101450000592426949110A4342614069194D0840A9
:101460000926F6060590002229463046FFF71DFAA8
:101470000220009003200024019069460294304627
:10148000FFF76AF9012001900294694600950394E0
:101490003046FFF761F910200090019469460294EC
:1014A0003046FFF759F901204002009006480190AC
:1014B000694602943046FFF74FF906B070BD000050
:1014C00000100240040400000000211010B50C4878
:1014D0000A4901600B4941600021816030220161AD
:1014E000C260416180218161FFF750FD002803D077
:1014F0009C2105A000F04AFB10BD00000044014003
:10150000E4000020E70300002E2E2F5372632F7497
:10151000696D2E630000000010B52B4890B029497A
:1015200001600024294984604160046128494461C4
:10153000C16080218161FFF75EFE002803D0432156
:1015400024A000F023FB0E940EA91F480F94FFF770
:10155000F9FC002803D04A211EA000F017FB0094DC
:101560000194029403940494059400226946164859
:101570000694FFF717FE002803D0562115A000F0AF
:1015800005FB042269461048FFF70CFE002803D033
:101590005B2110A000F0FAFA0120079440030894A0
:1015A0000C9009940A940B9407A90D940648FFF730
:1015B00099FC002803D0672106A000F0E7FA10B0DC
:1015C00010BD0000002C0140640000207FBB000023
:1015D000DC0500002E2E2F5372632F74696D2E636D
:1015E0000000000010B51C488AB01A4901600024B0
:1015F0002F218460416064210461C1608021816188
:10160000FFF78EFE002803D0792114A000F0BEFA67
:10161000079407A910480894FFF794FC002803D00A
:1016200080210EA000F0B2FA602000900194029494
:101630000022694604940848FFF70AFE002803D0F8
:10164000892106A000F0A2FA0348FFF793FD0AB033
:1016500010BD000000040040A40000202E2E2F53D7
:1016600072632F74696D2E63000000008307FF22F0
:10167000DB0E9A408907090E994000280BDA000713
:10168000000F0838830808489B001818C369934363
:101690000B43C3617047830804489B001B181868FC
:1016A000904308431860704700ED00E000E400E05C
:1016B00010494A78002A03D131220A7001224A7067
:1016C000FF22C732904204D90A78002A0AD0521E5B
:1016D00007E0FF229F32904204D20A78642A01D2A6
:1016E000521C0A70044B0A781B685A638A80C880AF
:1016F0007047000000000020A4000020F8B5254C31
:101700000920A17802260127234DC0060B0000F016
:101710003EFA06040A1B272D380929681F48C862AB
:10172000E860A770F8BD00211D48FFF727FE286874
:10173000C1683143C1601B48FFF75EFC194800686F
:10174000C1683943C16018E001220421FFF7ADF8F8
:1017500029685020486329682089C862E8600CE045
:1017600000220421FFF7A1F8822004E001220421D5
:10177000FFF79BF8D22029684863A078401CA0702E
:10178000F8BD00220421FFF790F829680020486383
:10179000A670F8BD000000206400002014050000C1
:1017A000A4000020E400002010B501210920490216
:1017B000C006FFF775F8002802D10249096848629F
:1017C00010BD00006400002010B5FFF77BF8FFF7A4
:1017D00083FB10BD30B591B0122000900120039022
:1017E000059010200490069005200024C0040225D6
:1017F0000A90089509940B946846FFF79DF9002814
:1018000000D0FEE707200C900E9401210D950F9457
:101810000CA8FFF7B9F8002800D0FEE7FFF74AF957
:101820007D21C900FEF75CFCFFF73EFB0420FFF7BB
:101830002DFB00221146501EFFF7A2F811B030BD5B
:10184000134801680122114301604168114A1140A7
:1018500041600168104A1140016001680122920450
:101860009143016041683F22120491434160C16A83
:1018700009090901C162016BFF221432914301631E
:10188000416B4908490041630021816070470000B5
:10189000001002400CB8FF08FFFFF6FE10B5074825
:1018A00000680169C943C90704D1891E0161044860
:1018B000FEF7E2FE0148FFF7ABFB10BDE40000209D
:1018C0001800002010B50A4800680169C943C9071B
:1018D00009D1891E0161FFF711FF01220920910240
:1018E000C006FEF7E2FF0248FFF792FB10BD0000C2
:1018F0006400002010B50F4C20680169C9438907B6
:1019000004D40221C9430161FFF7F8FE2068016990
:10191000C943490709D40421C943016101210920B0
:1019200000228902C006FEF7C0FF0248FFF770FBE5
:1019300010BD00006400002070B50268174B184EFF
:10194000984201D0B04203D17024A2434C68224394
:10195000144C154D984208D0B04206D0134EB042F8
:1019600003D0A04201D0A84204D103263602B243DC
:10197000CE6832438026B2434E69324302608A68A1
:10198000C2620A688262984203D0A04201D0A84293
:1019900001D1096901630121416170BD002C014041
:1019A0000004004000440140004801400020004085
:1019B00010B50123046A8B409C430462036A8A4089
:1019C0001343036210BD0000F0B5026A52085200D2
:1019D0000262056A436882697024A24392080C6817
:1019E00092001443022295438A68134E2A43114DF4
:1019F000A84204D0B04202D0104FB84206D1082706
:101A0000BA43CF681743042297433A46A84204D00A
:101A1000B04202D0094DA84206D103252D02AB43A6
:101A20004D691D438B692B43436084614968416361
:101A30000262F0BD002C014000440140004801401A
:101A400070B5026A10239A430262046A436882698D
:101A500073252D02AA430D682D02154320229443BD
:101A60008A6812012243104CA04208D11446CA6869
:101A70008026B443120122434024A24305E00B4CCC
:101A8000A04202D00A4CA04208D10324A402A343DE
:101A90004C69A4001C438B699B0023434360856110
:101AA00049688163026270BD002C0140004401401E
:101AB0000048014070B5026AFF2301339A43026275
:101AC000046A4368C2697025AA4392080D689200AF
:101AD00015430122520294438A6812022243104C99
:101AE000A04207D1C414A243CC68240222430615A5
:101AF000B24305E00B4CA04202D00B4CA04208D1EF
:101B000003242403A3434C6924011C438B691B0158
:101B100023434360C5614968C163026270BD000030
:101B2000002C0140004401400048014030B5026AE9
:101B300001231B039A430262056A4268C369732446
:101B40002402A3430C6824021C4301235B039D432E
:101B50008B681B032B430A4DA84205D0094DA842B0
:101B600002D0094DA84205D10125AD03AA434D6914
:101B7000AD012A434260C46149680164036230BD1B
:101B8000002C01400044014000480140FEE730B411
:101B90007446641E2578641CAB4200D21D46635D0A
:101BA0005B00E31830BC184702E008C8121F08C1E8
:101BB000002AFAD170477047002001E001C1121FCE
:101BC000002AFBD170470000FEF784FEFFF702FEFB
:101BD000FFF734FCFFF706FDFFF7F4FBFFF79CFC73
:101BE000FFF774FC002211460E20FEF7C9FE0E20FE
:101BF000FEF7BCFE002211460D20FEF7C1FE0D20AF
:101C0000FEF7B4FE002211460C20FEF7B9FE0C20B0
:101C1000FEF7ACFE002211460720FEF7B1FE0720BA
:101C2000FEF7A4FE0848FFF7E7F9074A1068C16805
:101C300001231943C160054800210378002BFCD023
:101C4000136859620170F8E7640000200A00002060
:101C5000000000000000000001020304060708095C
:101C6000801C00080000002018000000A81B0008CD
:101C7000981C00081800002010050000B81B000880
:101C80000000000000000000DC0500000000000073
:081C90000000000000127A00C0
:04000005080000B13E
:00000001FF
